{
  "contractName": "Whitelist",
  "abi": [
    {
      "inputs": [],
      "stateMutability": "nonpayable",
      "type": "constructor"
    },
    {
      "anonymous": false,
      "inputs": [
        {
          "indexed": false,
          "internalType": "uint256[]",
          "name": "expanded",
          "type": "uint256[]"
        }
      ],
      "name": "ExpandedValues",
      "type": "event"
    },
    {
      "anonymous": false,
      "inputs": [
        {
          "indexed": false,
          "internalType": "uint256[]",
          "name": "randArray",
          "type": "uint256[]"
        }
      ],
      "name": "RandomArray",
      "type": "event"
    },
    {
      "anonymous": false,
      "inputs": [
        {
          "indexed": false,
          "internalType": "uint256",
          "name": "random",
          "type": "uint256"
        }
      ],
      "name": "RandomArrayTest",
      "type": "event"
    },
    {
      "anonymous": false,
      "inputs": [
        {
          "indexed": false,
          "internalType": "uint256",
          "name": "testResult",
          "type": "uint256"
        }
      ],
      "name": "RandomTest",
      "type": "event"
    },
    {
      "anonymous": false,
      "inputs": [
        {
          "indexed": false,
          "internalType": "bytes32",
          "name": "id",
          "type": "bytes32"
        },
        {
          "indexed": false,
          "internalType": "uint256",
          "name": "userProvidedSeed",
          "type": "uint256"
        },
        {
          "indexed": false,
          "internalType": "uint256",
          "name": "randomResult",
          "type": "uint256"
        },
        {
          "indexed": false,
          "internalType": "uint256",
          "name": "time",
          "type": "uint256"
        }
      ],
      "name": "Result",
      "type": "event"
    },
    {
      "anonymous": false,
      "inputs": [
        {
          "indexed": false,
          "internalType": "uint256",
          "name": "converted",
          "type": "uint256"
        }
      ],
      "name": "keccakToInt",
      "type": "event"
    },
    {
      "inputs": [],
      "name": "name",
      "outputs": [
        {
          "internalType": "string",
          "name": "",
          "type": "string"
        }
      ],
      "stateMutability": "view",
      "type": "function",
      "constant": true
    },
    {
      "inputs": [],
      "name": "randomResult",
      "outputs": [
        {
          "internalType": "uint256",
          "name": "",
          "type": "uint256"
        }
      ],
      "stateMutability": "view",
      "type": "function",
      "constant": true
    },
    {
      "inputs": [
        {
          "internalType": "bytes32",
          "name": "requestId",
          "type": "bytes32"
        },
        {
          "internalType": "uint256",
          "name": "randomness",
          "type": "uint256"
        }
      ],
      "name": "rawFulfillRandomness",
      "outputs": [],
      "stateMutability": "nonpayable",
      "type": "function"
    },
    {
      "inputs": [
        {
          "internalType": "uint256",
          "name": "seed",
          "type": "uint256"
        }
      ],
      "name": "requestRandomNumber",
      "outputs": [
        {
          "internalType": "bool",
          "name": "",
          "type": "bool"
        }
      ],
      "stateMutability": "payable",
      "type": "function",
      "payable": true
    },
    {
      "inputs": [
        {
          "internalType": "uint256",
          "name": "seed",
          "type": "uint256"
        },
        {
          "internalType": "uint256",
          "name": "numValues",
          "type": "uint256"
        }
      ],
      "name": "requestRandomArray",
      "outputs": [
        {
          "internalType": "bool",
          "name": "",
          "type": "bool"
        }
      ],
      "stateMutability": "payable",
      "type": "function",
      "payable": true
    },
    {
      "inputs": [],
      "name": "getExpandedValues",
      "outputs": [
        {
          "internalType": "uint256[]",
          "name": "values",
          "type": "uint256[]"
        }
      ],
      "stateMutability": "nonpayable",
      "type": "function"
    },
    {
      "inputs": [
        {
          "internalType": "bytes32",
          "name": "randomValue",
          "type": "bytes32"
        },
        {
          "internalType": "uint256",
          "name": "n",
          "type": "uint256"
        }
      ],
      "name": "expand",
      "outputs": [
        {
          "internalType": "uint256[]",
          "name": "expandedValues",
          "type": "uint256[]"
        }
      ],
      "stateMutability": "pure",
      "type": "function",
      "constant": true
    }
  ],
  "bytecode": "0x60c0604052600060055534801561001557600080fd5b5073b3dccb4cf7a26f6cf6b120cf5a73875b7bbc655b7301be23585060835e02b77ef475b0cc51aa1e07098173ffffffffffffffffffffffffffffffffffffffff1660a08173ffffffffffffffffffffffffffffffffffffffff1660601b815250508073ffffffffffffffffffffffffffffffffffffffff1660808173ffffffffffffffffffffffffffffffffffffffff1660601b8152505050506040518060400160405280600981526020017f57686974656c6973740000000000000000000000000000000000000000000000815250600190805190602001906100fb92919061013a565b507f2ed0feb3e7fd2022120aa84fab1945545a9f2ffc9076fd6156fa96eaff4c131160001b60028190555067016345785d8a00006003819055506101df565b828054600181600116156101000203166002900490600052602060002090601f016020900481019282601f1061017b57805160ff19168380011785556101a9565b828001600101855582156101a9579182015b828111156101a857825182559160200191906001019061018d565b5b5090506101b691906101ba565b5090565b6101dc91905b808211156101d85760008160009055506001016101c0565b5090565b90565b60805160601c60a05160601c610cb1610212600039806104a952806108b45250806106ad52806108785250610cb16000f3fe6080604052600436106100705760003560e01c80635494bdda1161004e5780635494bdda146101ca57806394985ddd1461021a578063b1eb96c91461025f578063ed723b6c146102a557610070565b806306fdde031461007557806342619f6614610105578063467aa8de14610130575b600080fd5b34801561008157600080fd5b5061008a610311565b6040518080602001828103825283818151815260200191508051906020019080838360005b838110156100ca5780820151818401526020810190506100af565b50505050905090810190601f1680156100f75780820380516001836020036101000a031916815260200191505b509250505060405180910390f35b34801561011157600080fd5b5061011a6103af565b6040518082815260200191505060405180910390f35b34801561013c57600080fd5b506101736004803603604081101561015357600080fd5b8101908080359060200190929190803590602001909291905050506103b5565b6040518080602001828103825283818151815260200191508051906020019060200280838360005b838110156101b657808201518184015260208101905061019b565b505050509050019250505060405180910390f35b610200600480360360408110156101e057600080fd5b81019080803590602001909291908035906020019092919050505061046f565b604051808215151515815260200191505060405180910390f35b34801561022657600080fd5b5061025d6004803603604081101561023d57600080fd5b8101908080359060200190929190803590602001909291905050506104a7565b005b61028b6004803603602081101561027557600080fd5b8101908080359060200190929190505050610576565b604051808215151515815260200191505060405180910390f35b3480156102b157600080fd5b506102ba6105a5565b6040518080602001828103825283818151815260200191508051906020019060200280838360005b838110156102fd5780820151818401526020810190506102e2565b505050509050019250505060405180910390f35b60018054600181600116156101000203166002900480601f0160208091040260200160405190810160405280929190818152602001828054600181600116156101000203166002900480156103a75780601f1061037c576101008083540402835291602001916103a7565b820191906000526020600020905b81548152906001019060200180831161038a57829003601f168201915b505050505081565b60065481565b60608167ffffffffffffffff811180156103ce57600080fd5b506040519080825280602002602001820160405280156103fd5781602001602082028036833780820191505090505b50905060008090505b8281101561046557838160405160200180838152602001828152602001925050506040516020818303038152906040528051906020012060001c82828151811061044c57fe5b6020026020010181815250508080600101915050610406565b5080905092915050565b60006001600460006101000a81548160ff0219169083151502179055508160058190555061049c836106a6565b506001905092915050565b7f000000000000000000000000000000000000000000000000000000000000000073ffffffffffffffffffffffffffffffffffffffff163373ffffffffffffffffffffffffffffffffffffffff1614610568576040517f08c379a000000000000000000000000000000000000000000000000000000000815260040180806020018281038252601f8152602001807f4f6e6c7920565246436f6f7264696e61746f722063616e2066756c66696c6c0081525060200191505060405180910390fd5b61057282826107ef565b5050565b600080600460006101000a81548160ff02191690831515021790555061059b826106a6565b5060019050919050565b60606000424433604051602001808481526020018381526020018273ffffffffffffffffffffffffffffffffffffffff1673ffffffffffffffffffffffffffffffffffffffff1660601b815260140193505050506040516020818303038152906040528051906020012090506000600a9050606061062383836103b5565b90507fadb97a9c65fc110dbe19f3b941eb50454b4a179b942e920dc8a70368283253ad816040518080602001828103825283818151815260200191508051906020019060200280838360005b8381101561068a57808201518184015260208101905061066f565b505050509050019250505060405180910390a180935050505090565b60006003547f000000000000000000000000000000000000000000000000000000000000000073ffffffffffffffffffffffffffffffffffffffff166370a08231306040518263ffffffff1660e01b8152600401808273ffffffffffffffffffffffffffffffffffffffff1673ffffffffffffffffffffffffffffffffffffffff16815260200191505060206040518083038186803b15801561074857600080fd5b505afa15801561075c573d6000803e3d6000fd5b505050506040513d602081101561077257600080fd5b810190808051906020019092919050505010156107da576040517f08c379a000000000000000000000000000000000000000000000000000000000815260040180806020018281038252602b815260200180610c51602b913960400191505060405180910390fd5b6107e960025460035484610874565b50919050565b80600681905550600460009054906101000a900460ff161561081c5761081782600654610a7f565b610870565b7f388dc106b78f9e0c5a0fff1873726d9fa28c44720ae6bae7e289952dcbde8eb2826103e5600654426040518085815260200184815260200183815260200182815260200194505050505060405180910390a15b5050565b60007f000000000000000000000000000000000000000000000000000000000000000073ffffffffffffffffffffffffffffffffffffffff16634000aea07f000000000000000000000000000000000000000000000000000000000000000085878660405160200180838152602001828152602001925050506040516020818303038152906040526040518463ffffffff1660e01b8152600401808473ffffffffffffffffffffffffffffffffffffffff1673ffffffffffffffffffffffffffffffffffffffff16815260200183815260200180602001828103825283818151815260200191508051906020019080838360005b83811015610983578082015181840152602081019050610968565b50505050905090810190601f1680156109b05780820380516001836020036101000a031916815260200191505b50945050505050602060405180830381600087803b1580156109d157600080fd5b505af11580156109e5573d6000803e3d6000fd5b505050506040513d60208110156109fb57600080fd5b8101908080519060200190929190505050506000610a2d8584306000808a815260200190815260200160002054610b15565b9050610a55600160008088815260200190815260200160002054610b8f90919063ffffffff16565b60008087815260200190815260200160002081905550610a758582610c17565b9150509392505050565b60008160001b90506060610a95826005546103b5565b90507fadb97a9c65fc110dbe19f3b941eb50454b4a179b942e920dc8a70368283253ad816040518080602001828103825283818151815260200191508051906020019060200280838360005b83811015610afc578082015181840152602081019050610ae1565b505050509050019250505060405180910390a150505050565b600084848484604051602001808581526020018481526020018373ffffffffffffffffffffffffffffffffffffffff1673ffffffffffffffffffffffffffffffffffffffff1681526020018281526020019450505050506040516020818303038152906040528051906020012060001c9050949350505050565b600080828401905083811015610c0d576040517f08c379a000000000000000000000000000000000000000000000000000000000815260040180806020018281038252601b8152602001807f536166654d6174683a206164646974696f6e206f766572666c6f77000000000081525060200191505060405180910390fd5b8091505092915050565b6000828260405160200180838152602001828152602001925050506040516020818303038152906040528051906020012090509291505056fe4e6f7420656e6f756768204c494e4b202d2066696c6c20636f6e7472616374207769746820666175636574a2646970667358221220dbd9a74df8cd050e0ba93127a79beecadb5b97b3168a1d7cc01d79b288b90bf464736f6c63430006060033",
  "immutableReferences": {
    "404": [
      {
        "length": 32,
        "start": 1709
      },
      {
        "length": 32,
        "start": 2168
      }
    ],
    "406": [
      {
        "length": 32,
        "start": 1193
      },
      {
        "length": 32,
        "start": 2228
      }
    ]
  },
  "source": "// pragma solidity ^0.5.0;\npragma solidity 0.6.6;\n\n// import \"./vrf/VRFConsumerBase.sol\";\n// import \"./vrf/AggregatorV3Interface.sol\";\nimport \"@chainlink/contracts/src/v0.6/VRFConsumerBase.sol\";\n\ncontract Whitelist is VRFConsumerBase {\n  string public name;\n  bytes32 internal keyHash;\n  uint256 internal fee;\n  bool internal expanded;\n  uint256 numExpandedValues = 0;\n  \n  uint256 public randomResult;\n\n  event Result(bytes32 id, uint256 userProvidedSeed, uint256 randomResult, uint256 time);\n  event RandomTest(uint256 testResult);\n  event RandomArray(uint256[] randArray);\n  event ExpandedValues(uint256[] expanded);\n  event keccakToInt(uint256 converted);\n  event RandomArrayTest(uint256 random);\n\n  /**\n    * Constructor inherits VRFConsumerBase\n    * \n    * Network: Kovan\n    * Chainlink VRF Coordinator address: 0xdD3782915140c8f3b190B5D67eAc6dc5760C46E9\n    * LINK token address:                0xa36085F69e2889c224210F603D836748e7dC0088\n    * Key Hash: 0x6c3699283bda56ad74f6b855546325b68d482e983852a7a82979cc4807b641f4\n    */\n  constructor() \n      VRFConsumerBase(\n          0xb3dCcb4Cf7a26f6cf6B120Cf5A73875B7BBc655B, // VRF Coordinator\n          0x01BE23585060835E02B77ef475b0Cc51aA1e0709  // LINK Token\n      ) public\n  {\n      name = 'Whitelist';\n      keyHash = 0x2ed0feb3e7fd2022120aa84fab1945545a9f2ffc9076fd6156fa96eaff4c1311;\n      fee = 0.1 * 10 ** 18; // 0.1 LINK (varies by network)\n  }\n  \n  //THIS IS THE function for frontend to call\n  function requestRandomNumber(uint256 seed) public payable returns (bool) {\n    //entry point\n    expanded = false;\n    getRandomNumber(seed);\n    return true;\n  }\n\n  function requestRandomArray(uint256 seed, uint256 numValues) public payable returns (bool){\n    expanded = true;\n    numExpandedValues = numValues;\n    getRandomNumber(seed);\n    return true;\n  }\n\n  function getRandomNumber(uint256 userProvidedSeed) internal returns (bytes32 requestId) {\n    require(LINK.balanceOf(address(this)) >= fee, \"Not enough LINK - fill contract with faucet\");\n    requestRandomness(keyHash, fee, userProvidedSeed);\n  }\n\n  /**\n    * Callback function used by VRF Coordinator\n    */\n  function fulfillRandomness(bytes32 requestId, uint256 randomness) internal override {\n      randomResult = randomness;  //randomness is the random value returned\n      if(expanded){\n        expandRandom(requestId, randomResult);\n      }else{\n        emit Result(requestId, 997, randomResult, block.timestamp);\n      }\n  }\n\n  function expandRandom(bytes32 requestId, uint256 randomResult) internal {\n    // uint256 numValues = 10;\n    bytes32 vrf = bytes32(randomResult);\n    uint256[] memory expanded = expand(vrf, numExpandedValues);\n    emit ExpandedValues(expanded);\n  }\n\n  function getExpandedValues() external returns (uint256[] memory values){\n    bytes32 vrf = bytes32(keccak256(abi.encodePacked(now, block.difficulty, msg.sender)));\n    uint numValues = 10;\n    uint256[] memory expanded = expand(vrf, numValues);\n    emit ExpandedValues(expanded);\n    return expanded;\n  }\n\n  // SPDX-License-Identifier: MIT\n  function expand(bytes32 randomValue, uint256 n) public pure returns (uint256[] memory expandedValues) {\n      expandedValues = new uint256[](n);\n      for (uint256 i = 0; i < n; i++) {\n        expandedValues[i] = uint256(keccak256(abi.encode(randomValue, i)));\n      }\n\n      return expandedValues;\n  }\n\n}",
  "sourcePath": "/Users/dnbkr/projects/paid/chainlink/chainlink-vrf/src/contracts/Whitelist.sol",
  "compiler": {
    "name": "solc",
    "version": "0.6.6+commit.6c089d02.Emscripten.clang"
  },
  "schemaVersion": "3.2.2-next.0",
  "updatedAt": "2021-04-07T08:32:16.290Z",
  "networkType": "ethereum",
  "devdoc": {
    "methods": {}
  },
  "userdoc": {
    "methods": {
      "constructor": "Constructor inherits VRFConsumerBase     * Network: Kovan Chainlink VRF Coordinator address: 0xdD3782915140c8f3b190B5D67eAc6dc5760C46E9 LINK token address:                0xa36085F69e2889c224210F603D836748e7dC0088 Key Hash: 0x6c3699283bda56ad74f6b855546325b68d482e983852a7a82979cc4807b641f4"
    }
  }
}